:020000040800F2
:1000000000000120E1290008292A0008292A000807
:10001000292A0008292A0008292A000800000000CF
:10002000000000000000000000000000292A000875
:10003000292A000800000000292A0008292A0008AF
:10004000292A0008292A0008292A0008292A000844
:10005000292A0008292A0008292A0008292A000834
:10006000292A0008292A0008292A0008292A000824
:10007000292A0008292A0008292A0008292A000814
:10008000292A0008292A0008292A0008C927000867
:10009000D1270008292A0008292A0008292A00084F
:1000A000292A0008292A0008292A0008292A0008E4
:1000B000292A0008292A0008292A0008292A0008D4
:1000C000292A0008292A0008292A0008292A0008C4
:1000D000292A0008292A0008292A0008292A0008B4
:1000E000292A0008292A0008292A0008292A0008A4
:1000F000292A0008292A0008292A0008292A000894
:10010000292A0008292A0008292A0008292A000883
:10011000292A0008292A0008292A0008292A000873
:10012000292A0008292A0008292A0008292A000863
:1001300000000000000000000000000000000000BF
:1001400000000000000000000000000000000000AF
:10015000000000000000000000000000000000009F
:10016000000000000000000000000000000000008F
:10017000000000000000000000000000000000007F
:10018000000000000000000000000000000000006F
:10019000000000000000000000000000000000005F
:1001A000000000000000000000000000000000004F
:1001B000000000000000000000000000000000003F
:1001C000000000000000000000000000000000002F
:1001D000000000000000000000000000000000001F
:0401E0005FF8E0F1F3
:1001E4000348044B834202D0034B03B118477047C2
:1001F400C8010020C801002000000000054806498D
:100204000B1AD90F01EBA301491002D0034B03B120
:1002140018477047C8010020C801002000000000F2
:1002240010B5064C237843B9FFF7DAFF044B13B13A
:100234000448AFF300800123237010BDC8010020DF
:10024400000000002C2A000808B5044B1BB1044927
:100254000448AFF30080BDE80840CFE70000000089
:10026400CC0100202C2A000870B50D4E0D4D761BD4
:10027400B61006D0002455F8043B01349847A64232
:10028400F9D1094E094D02F0CFFB761BB61006D00A
:10029400002455F8043B01349847A642F9D170BDB7
:1002A400282B0008282B00082C2B0008282B0008DA
:1002B400830730B548D0541E002A3FD00346CAB243
:1002C40001E0013C3AD303F8012B9D07F9D1032C3B
:1002D4002DD9CDB245EA05250F2C45EA054536D979
:1002E400A4F1100222F00F0C03F1200EE6444FEAB1
:1002F400121C03F1100242E9045542E9025510327E
:100304007245F8D10CF1010214F00C0F03EB021248
:1003140004F00F0C13D0ACF1040323F003030433F3
:10032400134442F8045B9342FBD10CF003042CB158
:10033400CAB21C4403F8012B9C42FBD130BD644675
:100344001346002CF4D1F9E703461446BFE71A46D6
:10035400A446E0E770B506460D46002830D0836910
:1003640063B384682C4B9C4234D02C4B9C423CD0CD
:100374002B4B9C4208BFF468A3891B072ED5236925
:1003840063B3297839B932E023685A1C22601970A2
:1003940015F8011F59B3A368013B002BA360F3DADE
:1003A400A269934201DB0A29EED12246304600F0CD
:1003B40041F80130ECD14FF0FF3070BD00F004FB88
:1003C400B369B468002BCDD1304600F0FDFA124B6E
:1003D4009C42CAD17468A3891B07D0D421463046F5
:1003E40000F08AF80028CCD0E5E7B468C4E7A36835
:1003F400013B002BA36008DA22460A21304600F0B4
:1004040019F80130D7D00A2070BD0A22236810469B
:10041400591C21601A7070BD882A0008682A0008D7
:10042400482A0008024B01461868FFF793BF00BF33
:1004340000000020F8B506460D46144608B183694D
:1004440043B3254B9C422AD0244B9C4229D0244BB5
:100454009C4208BFF468A269A389A2601A0722D546
:10046400236903B322686169D31AEDB299422F4616
:1004740029DD0133A1680139A160511C2160157087
:1004840062699A4216D0A389DB0701D50A2D11D0DF
:100494003846F8BD00F098FA0F4B9C42D4D17468EA
:1004A400D9E7B468D7E72146304600F025F838B9D3
:1004B4002369D7E72146304600F024F90028E7D025
:1004C4004FF0FF37E4E72146304600F01BF90028DF
:1004D400F6D101232268CDE7882A0008682A00089B
:1004E400482A000803460A46024908681946FFF7E5
:1004F400A1BF00BF000000203C4B70B51D6806463C
:100504000C460DB1AB69E3B1394B9C421FD0394B5A
:100514009C424DD0384B9C4208BFEC68B4F90C3077
:1005240018079AB219D5216911B312F001002FD01E
:1005340000256069A5604042A06100292ED00020FA
:1005440070BD284600F040FA294B9C42DFD16C680C
:10055400B4F90C3018079AB2E5D4D1063ED5520747
:1005640028D4216943F00803A3819AB20029DCD17D
:1005740002F42070B0F5007FD7D02146304600F059
:1005840087FAB4F90C3021699AB212F00100CFD184
:10059400950758BF6069A0600029D0D1120658BFE2
:1005A4000846CDD543F040034FF0FF30A38170BD22
:1005B400AC68B3E7616B51B104F14402914204D0D9
:1005C400304600F0F3FAB4F90C30002262630022E2
:1005D400216923F02403C4E90012C3E7092243F08C
:1005E400400332604FF0FF30A38170BD0000002053
:1005F400882A0008682A0008482A0008F8B58B8968
:100604000C46190707463BD46268002A55DDE66AA2
:10061400002E50D000223D683A6013F4805250D12D
:1006240001233846216AB047421C5CD0A389E66A9C
:100634005B0705D56368C01A636B0BB1236CC01AE2
:100644000246216A00233846B047411C3BD13B682F
:10065400002B38D01D2B01D0162B4BD1002322693F
:10066400C4E90023616B3D6029B304F1440399425A
:1006740002D0384600F09AFA002318466363F8BDA6
:100684002669C6B19A0718BF0023256808BF6369A5
:100694002660AD1BA3600CE02B463246D4F828C07C
:1006A4003846216AE047B0F1000CA5EB0C0566441E
:1006B40012DD002DF0DC0020F8BD226C002AA6DC3F
:1006C400F9E7606DB4E70022236962602360A389BF
:1006D400DB04C7D56065C5E7A3894FF0FF3043F05D
:1006E4004003A381F8BD3B68002B9FD01D2B06D08F
:1006F400162B04D0A38943F04003A381F8BD002046
:100704003D60F8BD38B50B69BBB10C46054608B170
:100714008369B3B10D4B9C4211D00D4B9C4213D055
:100724000C4B9C4208BFEC68B4F90C302BB1214649
:100734002846BDE83840FFF761BF002038BD6C682B
:10074400F2E700F041F9E5E7AC68EDE7882A000834
:10075400682A0008482A000838B540B303690446EB
:10076400E3B1174B1D680DB1AB69CBB1154B9C427E
:100774000FD0154B9C4221D0144B9C4208BFEC680F
:10078400B4F90C3053B121462846BDE83840FFF790
:1007940035BF6C68B4F90C30002BF4D1002038BD9F
:1007A400284600F011F9074B9C42E2D1F1E7084BCF
:1007B40008491868BDE8384000F046B9AC68DFE77E
:1007C40000000020882A0008682A0008482A000837
:1007D400442A00080907000800207047014900F076
:1007E40033B900BF0907000800207047682270B5BC
:1007F4004D1E02FB05F50E4605F1740100F03CFAAE
:10080400044640B100210C30C4E9016005F16802DE
:100814002160FFF74DFD204670BD00BF274B2DE939
:10082400F0411E680746B36953B34FF004084836D5
:10083400D6E90134013B04D51EE05A1C04F16804D6
:100844001AD0B4F90C50013B002DF6D11C4B0822F0
:100854002946C4E90055C4E90253C4E90455656650
:10086400A56104F15C00FFF723FDC4E90D55C4E95B
:1008740012552046BDE8F08135682DB12E46D7E7E4
:10088400304600F01FF8D0E74FF4D671384600F038
:10089400F3F9044668B1056029460546C0F80480AA
:1008A4000C304FF4D072A060FFF702FD34602E4686
:1008B400BEE70C2330603B60DBE700BF442A00083E
:1008C4000100FFFF0023334A2DE9F0471268C0E915
:1008D40012339042036508BF01232F4908BF836187
:1008E40081620546FFF79AFF034628466B60FFF7CF
:1008F40095FFA86028460024FFF790FF04236E6844
:10090400DFF898A0DFF89890DFF89880264FE86029
:100914000822F3602146C6E90044C6E9044474662B
:10092400B460B46106F15C00FFF7C2FC1F4BC6E97A
:10093400086AC6E90A983763AE680822F36021465C
:10094400C6E90044C6E904447466B460B46106F1BF
:100954005C00FFF7ADFC164BC6E9086AC6E90A98C5
:100964003763EE682146F3600822C6E90044C6E90D
:1009740004447466B460B46106F15C00FFF798FC4B
:100984000123C6E9086AC6E90B87C6F82890AB615B
:10099400BDE8F087442A0008E1070008590D000863
:1009A400810D0008C10D0008E10D000809000100D7
:1009B40012000200024B0349186800F045B800BF5A
:1009C400442A000809070008836903B97AE77047D5
:1009D400704700BF704700BF704700BF704700BF3B
:1009E400024B0349186800F00FB800BF0000002054
:1009F400DD070008024B0349186800F005B800BF82
:100A040000000020ED0700082DE9F041002688468B
:100A140000F14807D7E90154013D0ED4A389013DF3
:100A2400012B06D9B4F90E30013302D02046C04759
:100A340006436B1C04F16804F0D13F68002FE9D130
:100A44003046BDE8F08100BF2DE9F8434FF00009BE
:100A54000746884600F14806D6E90154013D10D402
:100A6400A389013D012B08D9B4F90E30013304D018
:100A740021463846C04749EA00096B1C04F1680462
:100A8400EED13668002EE7D14846BDE8F88300BFB2
:100A9400F0B58B890C46990797B007D5012204F16C
:100AA4004703C4E90432236017B0F0BDB4F90E1053
:100AB400054600292DDB6A4600F0BCF9002827DB37
:100AC400019E4FF4806706F47046A6F50056B6FA08
:100AD40086F639462846760900F0CEF830B3A38965
:100AE4001A4A43F08003AA62C4E90407A381206080
:100AF400002ED9D02846B4F90E1000F0AFF9002822
:100B0400D2D0A38923F0030343F00103A381CBE7ED
:100B1400A38913F0800F14BF40274FF48067284641
:100B24003946002600F0A8F80028D8D1B4F90C30D2
:100B34009A05B9D4012123F0030304F1470243F0D9
:100B44000203C4E90421A3812260ADE7E1070008A0
:100B540070B50C46B1F90E10164600291D4696B024
:100B640013DB6A4600F066F900280EDB01994FF4A6
:100B7400806301F47041A1F50051B1FA81F10020C4
:100B840049092960336016B070BD0022B4F90C30F5
:100B94002A601B0604D540230020336016B070BDC4
:100BA4004FF480630020336016B070BD002952D02A
:100BB40038B551F8043C0C1F002BB8BFE4180546A7
:100BC40000F074F92B4A1368002B45D0A3420CD9CA
:100BD40021686018834228D0636028461460BDE809
:100BE400384000F065B9A3420FD81A465B68002B61
:100BF400F9D11168501884421DD034D36360546015
:100C04002846BDE8384000F053B911685018A04296
:100C140015D028D8216860188342EFD118685B6822
:100C24000144C4E900135460EAE718685B680144AE
:100C3400C4E90013D1E7236819441160E0E7206890
:100C44000144501883421160DAD1D3E9000301440E
:100C5400C2E90013D4E77047284663601460BDE816
:100C6400384000F025B90C2328462B60BDE83840F5
:100C740000F01EB9E4010020F8B5CD1C25F00305F1
:100C840008350C2D38BF0C25002D064623DBA94260
:100C940021D8264F00F00AF93A6822B3144603E03B
:100CA40063682246FBB11C4623685B1BF8D40B2BFC
:100CB40015D8636894420CBF3B605360304600F023
:100CC400F7F804F10B00231D20F00700C21A01D02D
:100CD4001B1AA350F8BD0C2300203360F8BD236019
:100CE4001C442560EAE77968D1B12946304600F012
:100CF4001FF8431C01460CD0C41C24F00304A0427A
:100D040005D03046611A00F013F8013001D0256097
:100D1400D4E70C233046336000F0CAF80020F8BD55
:100D2400304600F005F87860DFE700BFE4010020FA
:100D3400002238B5064D044608462A6000F0F8F84B
:100D4400431C00D038BD2B68002BFBD0236038BD7A
:100D5400EC01002010B50C46B1F90E1000F0AAF811
:100D6400002803DB636D0344636510BDA38923F48A
:100D74008053A38110BD00BF002070472DE9F041CE
:100D84000C46B1F90C101F46CB05054616460BD48C
:100D940021F48051A1813B4632462846B4F90E1015
:100DA400BDE8F04100F01EB8B4F90E100223002291
:100DB40000F066F8B4F90C10EAE700BF10B50C4671
:100DC400B1F90E1000F05CF8A389421C0EBF23F4A5
:100DD400805343F480536065A38110BDB1F90E10B4
:100DE40000F016B838B50C46114600228446074D6B
:100DF40020462A601A46644600F036F9431C00D0A7
:100E040038BD2B68002BFBD0236038BDEC010020DB
:100E1400002238B5064D044608462A6000F060F802
:100E2400431C00D038BD2B68002BFBD0236038BD99
:100E3400EC01002070B50026074D04460846114613
:100E44002E6000F055F8431C00D070BD2B68002BB9
:100E5400FBD0236070BD00BFEC010020002238B538
:100E6400064D044608462A6000F04AF8431C00D0A8
:100E740038BD2B68002BFBD0236038BDEC0100206B
:100E840038B50C46114600228446074D20462A6098
:100E94001A46644600F03CF8431C00D038BD2B6869
:100EA400002BFBD0236038BDEC010020704700BF4D
:100EB400704700BF38B50C46114600228446074DE2
:100EC40020462A601A46644600F02AF8431C00D0E3
:100ED40038BD2B68002BFBD0236038BDEC0100200B
:100EE4005822024B4FF0FF301A607047EC0100208B
:100EF4005822024B4FF0FF301A607047EC0100207B
:100F04005822024B00201A60704700BFEC010020F9
:100F14005822024B4FF0FF301A607047EC0100205A
:100F24005822024B4FF0FF301A607047EC0100204A
:100F3400044A05491368002B08BF0B461844106087
:100F440018467047F00100208002002082B0002380
:100F5400019300932C4A136843F4803313602A4BA3
:100F64001B6803F400330093019B01330193009B3E
:100F74001BB9019BB3F5A06FF1D1234B1B6813F48C
:100F8400003F06D001230093009B012B04D002B044
:100F9400704700230093F7E71C4B1A6842F01002D5
:100FA4001A601A6822F003021A601A6842F00202F8
:100FB4001A60A3F580535A685A605A685A605A688E
:100FC40042F480625A605A6822F47C125A605A6869
:100FD40042F4E8125A601A6842F080721A600A4BAE
:100FE4001B6813F0007FFAD0074B5A6822F0030203
:100FF4005A605A6842F002025A60034B5B6803F07D
:101004000C03082BF9D1C2E7001002400020024073
:1010140008B5FFF79BFF08BD08B5104B1A6842F0EE
:1010240001021A6059680E4A0A405A601A6822F08E
:10103400847222F480321A601A6822F480221A60C0
:101044005A6822F4FE025A604FF41F029A60FFF7B6
:10105400DFFF044B4FF000629A6008BD00100240AD
:101064000000FFF800ED00E000E00246501EC2B1AF
:1010740011F8012B4FF06043D3F8803E13F0010FB9
:10108400F3D04FF06043D3F8003E13F0010FECD0DF
:101094004FF060431B68002BFAD04FF060431A7086
:1010A400E3E700207047000008B500F079F800F08D
:1010B40023F800F0ABF801F017FB01F00FF80B4B2D
:1010C4001B68052BFBD140224FF48071084801F0C6
:1010D400ABF94021002001F0ADFA3021022001F0EB
:1010E400E0F90448FFF79EF9FEE700BF7C02002008
:1010F40064000020A82A000870B586B001210420ED
:1011040000F0AAFA0226ADF8146003248DF8164004
:1011140010238DF817301E4D05A9284600F0D2F88B
:101124003146284600F027F94FF44063ADF81430F7
:101134008DF816401C238DF8173005A9154800F0CA
:10114400C1F801214FF4800000F094FA01A800F0E6
:1011540085F90023ADF808304BF6FF73ADF80A307B
:101164001523ADF80C304FF48063ADF80E304FF416
:101174008043ADF81030084B0193084C01A9204678
:1011840000F0FEF80121204600F076F906B070BDAB
:1011940000080140000C0140801A0600005800407D
:1011A40008B500F077F94FF4803000F093F900F0BF
:1011B40089FA154B1870012800D0FEE7102000F0C2
:1011C40075F8022000F068F8002000F0C3F9002050
:1011D40000F0D4F94FF4806000F0C6F94FF4E01148
:1011E4004FF4803000F094F9012000F09BF939208D
:1011F40000F04EFA0028FAD0022000F099F900F02D
:10120400A1F90828FBD108BD3402002008B500204C
:1012140000F0BEF901214FF4000000F02BFA08BDE4
:1012240040F0BF6040F40030014BD860704700BF0D
:1012340000ED00E0C378FBB1154BDA68D243C2F38A
:101244000222C2F1040C0F2323FA02F2417801FABC
:101254000CF1837813400B431B010278DBB20D4978
:101264000A4482F80033037803F01F005B0901226B
:10127400824041F823207047037803F01F015B0983
:1012840001228A402033034941F82320704700BFDC
:1012940000ED00E000E100E0034A136803F03803C6
:1012A40003431360704700BF00200240044B1968D9
:1012B40021F0100119601A6802431A60704700BFD8
:1012C4000020024030B5CB7803F00F02964613F0AD
:1012D400100F03D091F802E04EEA020E0B7803B32C
:1012E4000468002301E042610133072B18D801226E
:1012F4009A40B1F800C032EA0C05F5D14FEA830CEC
:101304000F2505FA0CF524EA05040EFA0CFC4CEA48
:101314000404CD78282DE6D0482DE5D10261E3E719
:1013240004600B88FF2B25D94468002303E0CD78A3
:10133400482D1CD00133072B1BD803F1080C0122C4
:1013440002FA0CF2B1F800C032EA0C05F2D14FEA0D
:10135400830C0F2505FA0CF524EA05040EFA0CFC9F
:101364004CEA0404CD78282DE1D14261DFE7026123
:10137400E0E7446030BD016170474161704700009F
:1013840070B586B004460D468688B6B226F03F0690
:10139400B6B201A800F002F903982D4BA3FB002379
:1013A400990C46EA9346A680228892B222F0010262
:1013B40092B222802B68274A934222D88C465B0043
:1013C400B0FBF3F39BB2032B00D804230CF1010C04
:1013D400A4F820C0A38323889BB243F00103238095
:1013E40023889BB223F4816323F00203AA886989CA
:1013F4000A4313432380AB892A891343238106B00C
:1014040070BDEE884BF6FF7296421BD003EB83034C
:1014140003EB8303B0FBF3F39BB243F48043C3F3C6
:101424000B020AB943F0010343F400434FF49672EC
:1014340001FB02F2084981FB02129211013292B2BD
:101444002284C7E703EB4303B0FBF3F39BB2E6E765
:1014540083DE1B43A0860100D34D621041F2883322
:101464000360002383804BF6FF72C28003814381B3
:101474004FF480438381704729B103889BB243F0C2
:1014840001030380704703889BB223F001039BB2DE
:10149400038070470D4B1A6842F001021A605968C4
:1014A4000B4A0A405A601A6822F0847222F480328D
:1014B4001A601A6822F480221A605A6822F4FE0222
:1014C4005A604FF41F029A60704700BF0010024038
:1014D4000000FFF80D4B1A6822F480321A601A6873
:1014E40022F480221A60B0F5803F03D0B0F5802F3B
:1014F40006D07047054A136843F48033136070477D
:10150400024A136843F4A02313607047001002409A
:10151400034A536823F47C1308431843506070470C
:1015240000100240014B1866704700BF00004242A1
:10153400034A536823F0030303435360704700BF17
:1015440000100240024B586800F00C00704700BFC6
:1015540000100240034A536823F0F003034353602E
:10156400704700BF00100240034A536823F4E0634D
:1015740003435360704700BF00100240034A53689E
:1015840023F4605343EAC0035360704700100240E1
:10159400014BC3F8D80070470000424210B4294BF5
:1015A4005B6803F00C03042B2BD0082B2CD013B155
:1015B400254B036001E0244B036022494B68C3F3CD
:1015C4000313224CE35CDAB20368D34043604A68F5
:1015D400C2F30222A25CD2B223FA02F282604A6807
:1015E400C2F3C222A25CD2B2D340C3604A68C2F33F
:1015F400813217498A5CD2B2B3FBF2F3036110BCA7
:101604007047114B0360D8E70E4A53685268C3F31E
:101614008343023312F4803F04D10E4A02FB03F3E6
:101624000360CAE7074A526812F4003F04D0094A2B
:1016340002FB03F30360C0E7034A02FB03F3036006
:10164400BBE700BF0010024000127A00A80000208F
:10165400A400002000093D0021B1054A9369184304
:1016640090617047024A936923EA000090617047D1
:101674000010024021B1054AD3691843D061704774
:10168400024AD36923EA0000D06170470010024087
:101694004309012B0CD0022B0DD0094B5B6A00F0DF
:1016A4001F0023FA00F010F0010F07D0012070474B
:1016B400034B1B68F3E7024B1B6AF0E700207047FB
:1016C4000010024000B583B0002301933120FFF7DE
:1016D400DFFF019B01330193019BB3F5A06F01D0A0
:1016E4000028F3D03120FFF7D3FF00B1012003B06D
:1016F4005DF804FB08B538B1064B1B681B689847B6
:10170400054B18680A3008BD034B1B6801221A8276
:10171400F9E700BF640200205C02002008B538B17C
:10172400064B1B689B689847054B18680C3008BD2E
:10173400034B1B6801221A82F9E700BF64020020F0
:101744005C02002008B5E8B1294B00221A80294B1D
:101754001A68137813F07F031FD1537A13F0200F04
:1017640002D0234A0221117013F0400F0FD0204AF7
:10177400137843F0010313701F4B1B681B699847D0
:101784001B4808BD1B4B1B6802221A82F9E7184A42
:10179400137823F001031370EEE7012B24D0022BFE
:1017A40024D1527902F00F0312F0800F0ED19B0066
:1017B40003F1804303F5B8431B6803F44053B3F5C6
:1017C400805FD9D10A4B01221A70D5E79B0003F13F
:1017D400804303F5B8431B6803F03003102BCBD1CF
:1017E400034B01221A70C7E70148CAE70020C8E783
:1017F400380200205C02002064020020F8B5254B6A
:101804001D682C8A2B7A0CB9042B28D0AB8A9C42F5
:101814003ED804279C4200D31C46A4B2AB692046A0
:1018240098470646002000F0E5FE01462246304671
:1018340000F0FAFD2146002000F0FCFE2B8A1B1B61
:101844002B826B8A1C446C82134B30221A80134BFC
:101854004FF440521A800F4B1B681F72F8BD104B97
:101864001B78012B04D00C4B10221A800727F2E7B7
:101874000C4BD3F8502C92B20B4B13445B00002258
:101884001A60054B30211980054B1A700427E2E7D2
:101894000227BFE75C0200206C0200206A020020DD
:1018A40035020020005000400230002010B582B004
:1018B400774B1A685378062B31D03BB9518829B934
:1018C400516821F47F41B1F5003F3FD0082B7AD015
:1018D4000A2B00F088806F4B1B686D4A12681B69E5
:1018E40050789847032800F0A080694B1B681A8A37
:1018F4004FF6FF718A4200F09D80022800F09D801F
:10190400002A00F09A8093F900100029C0F299800F
:1019140003221A72604B4FF440521A808FE01378FE
:1019240013F07F0FD7D19378012B07D0022B09D066
:10193400032BD0D1574B1B685B6A49E0554B1B689E
:10194400DB6945E0534B1B681B6A41E0137813F0D5
:101954007F0302D19188002965D0012B1BD0022B73
:10196400B9D1537903F00F0203F0700013F0800F24
:1019740020D1930003F1804303F5B8431B6803F4BB
:101984004053464909789142A5D90028A3D1002B98
:10199400A1D0434B1CE03F4B1B689B69002150794D
:1019A4009847002897D13A4B1B689B7A002B92D01A
:1019B4003B4B0DE0930003F1804303F5B8431B68F0
:1019C40003F03003DDE7137813F07F0F83D1354B39
:1019D400002B80D02E4A1268002454829361204642
:1019E4009847204681E7137803F07F03012B7FF4A7
:1019F40072AF937A002B3FF46EAF5388002B7FF4C1
:101A04006AAF536823F47F43B3F5803F7FF463AF39
:101A1400204B1B689B6900215079984700287FF46C
:101A24005AAF214BD4E71E4BD2E7194B1B6809224E
:101A34001A7204E009221A7201E008221A7202B032
:101A440010BDD98801910198824209D9019A1A825C
:101A5400104A126892F82C209A82FFF7CFFEEEE724
:101A64008A42F5D20B49096891F82C1088B2824257
:101A740003D20E4A00211170EAE792FBF1F001FB58
:101A84001022002AE4D1094A01211170E0E700BFC5
:101A94005C020020600200206A020020A0010020F5
:101AA40049170008F916000821170008350200201C
:101AB40070B5254B1C68258AA369B3B1ADB1A18A61
:101AC4008D4200D30D46ADB2284698470646238A78
:101AD4005B1B2382638A2B446382002000F09AFDFF
:101AE40001462A46304600F0B3FC238A43B9238AD0
:101AF400A28A934210D3144B1B6803221A7270BD3E
:101B0400124B4FF440521A800021084600F092FD17
:101B14000F4B30221A80EAE723B10B4B1B680522D6
:101B24001A72ECE7084B1B6806221A72094BD3F8A9
:101B3400502C92B2084B13445B0000221A60044BF1
:101B440030221A80DBE700BF5C0200206A0200201A
:101B54006C020020005000400230002010B50C4BF5
:101B64001B68DA780B4949788A420AD89C7854B9B8
:101B7400998851B99A72084B1B685B68984720464C
:101B840010BD0224FBE70224F9E70224F7E700BFB3
:101B94005C020020A00100206402002010B5124B5A
:101BA4001A68124C23689269D97858799047236847
:101BB4009A7A7AB188B91A798AB99C788CB90C4B1B
:101BC4001B68DB689847094B1B685A79DA72DA7824
:101BD4001A7300E00224204610BD0224FBE702240D
:101BE400F9E70224F7E700BF600200205C0200204E
:101BF4006402002038B5454B1A68137813F07F034C
:101C040003D0022B08D0022404E0537A23F02003EB
:101C140053720024204638BD5388002B6CD11479AC
:101C2400002C6BD1537923F080005BB2002B23DBB3
:101C3400810001F1804101F5B841096801F4405186
:101C4400334D95F800C084455AD900295AD0927A68
:101C5400002A59D0002B18DB850005F1804505F5D5
:101C6400B8452B6803F44053B3F5805F20D0294B6B
:101C74001B685B699847CDE7810001F1804101F55C
:101C8400B841096801F03001DAE7830003F18043C9
:101C940003F5B8431B6803F03003102BE7D1C5B23A
:101CA400284600F06EFC3021284600F0FAFBDEE7FF
:101CB40090B9194B93F82C1000F0CCFC2B689BB214
:101CC40023F4804323F0700383F4405343F400432C
:101CD40043F080032B60CAE700F03FFC2B689BB203
:101CE40023F4804323F0700383F4405343F400430C
:101CF40043F080032B60BAE702248BE7022489E7D0
:101D0400022487E7022485E7022483E75C0200209B
:101D1400A0010020640200207001002010B52D4BAA
:101D24001868427922F0800352B2002A2EDB99000F
:101D340001F1804101F5B841096801F44051264C94
:101D440094F800C09C453DD94488002C3CD100291E
:101D54003CD0817A00293BD0002A20DB9B0003F190
:101D6400804303F5B8431A6892B222F4804222F009
:101D7400700282F4805242F4004242F080021A60FF
:101D8400164B1B689B699847002010BD990001F110
:101D9400804101F5B841096801F03001CFE79B00AB
:101DA40003F1804303F5B8431A6892B222F4E04287
:101DB40022F0400282F0100242F4004242F080021B
:101DC4001A60DDE70220E0E70220DEE70220DCE71C
:101DD4000220DAE75C020020A00100206402002057
:101DE40008B5064B1A68537A43F020035372044B28
:101DF4001B68DB699847002008BD00BF5C02002017
:101E04006402002010B5354B1A685478137813F027
:101E14007F032DD1092C11D0052C13D0032C1FD0F6
:101E2400012C29D1D378012B26D1938823BB537A53
:101E340013F0200F20D0FFF7DDFE01E0FFF78EFE48
:101E440008B319E092F90330002B3DDB9378002BA3
:101E54003CD19388002B3BD1907AA0B1082220E09A
:101E6400D378012B08D1938833B9FFF7B9FFE7E79B
:101E7400012B1AD0022B1DD0194B1B685B6920461D
:101E84009847032826D038BB164BD3F8502C92B26F
:101E9400154B13445B0000221A60144B30221A8045
:101EA40006220E4B1B681A7210BD0B2CE4D1FFF7EF
:101EB40075FEC5E7012C04D0032CDDD1FFF72EFFFE
:101EC400BEE7FFF797FEBBE70822EAE70822E8E748
:101ED4000822E6E70922E4E70822E2E75C020020A0
:101EE4006002002000500040023000206C020020FC
:101EF400054B1B685A8A10B10868104470478888DB
:101F0400801A1882002070475C02002008B50C4B30
:101F140093F82C10002000F09DFB0A4B1B68187AE4
:101F2400082804D0092814BF0020012008BD064B4E
:101F34004FF480521A80054B10221A80F2E700BF3A
:101F4400700100205C0200206A0200206C02002064
:101F540070B51C4BD3F8502C92B21B4B13445B004E
:101F64001B881A4A1268117A09290AD1174B1B686F
:101F740001221A72DB8813BBFFF744FFFFF7C6FF89
:101F840070BD5B0003F1804303F5C0431C4614F8A5
:101F9400011B11700D4D2A685B7853702E68B4F8DC
:101FA400030000F08BFB70802E68B4F8070000F08B
:101FB40085FBB0802B68B4F80B20DA80D6E7FFF7F6
:101FC40075FCDBE700500040043000205C02002078
:101FD40008B5124B1B681B7A022B15D0042B1AD0A0
:101FE400032B05D0052B03D0072B07D008220CE0C8
:101FF400FFF75EFD094B1B681A7A06E0084B1B6865
:10200400DB689847082200E00822044B1B681A7218
:10201400FFF77CFF08BD0822F7E700BF5C02002041
:102024006002002000B5114B93F800E0002114E099
:102034005FFA81FC4FEA8C0202F1804202F5B84259
:10204400136823F0F0031B051B0D43F4004343F016
:10205400800343EA0C03136001317145E8D340F077
:102064008000034BC3F84C0C5DF804FBA001002076
:102074000050004008B5154B1A68137A022B05D09E
:10208400042B03D0062B0CD0082204E0FFF7B6FB88
:102094000E4B1B681A7A0D4B1B681A72FFF736FF3A
:1020A40008BD5378052B05D0094B1B689B689847DE
:1020B4000822F0E7137813F07F0FF5D1D078FFF7FB
:1020C400B1FF044B1B681B6A9847EDE75C020020D4
:1020D40060020020640200207047000008B5074B2E
:1020E400074A136002221A72064B074A1360074A12
:1020F400074911601B68984708BD00BF3C020020D7
:102104005C020020700100206002002064020020B4
:10211400A401002010B582B00023ADF806309BE086
:102124001446D2F8003C23F4E14323F070031B046B
:102134001B0CC2F8003CFFF79DFFD4F8003C23F4CD
:10214400804323F040031B041B0C8B4A128812F4B7
:10215400805F01D083F48053874A128812F4005FB1
:1021640001D083F40053854A128812F0100F01D075
:1021740083F01003814A128812F0200F01D083F0FB
:1021840020039BB243F4004343F080037C4AC2F82B
:10219400003C02B010BD7A4CD4F8003C23F070032C
:1021A4001B051B0DC4F8003CFFF7D2FED4F8003C1D
:1021B40023F4804323F040031B041B0C6E4A128853
:1021C40012F4805F01D083F480536B4A128812F4B6
:1021D400005F01D083F40053684A128812F0100F94
:1021E40001D083F01003654A128812F0200F01D049
:1021F40083F020039BB243F4004343F08003604A1E
:10220400C2F8003CC5E79B0003F1804303F5B843E3
:102214001A6892B2ADF80620BDF8062012F4004FF9
:1022240040F09B80BDF8063013F0800F14D0554960
:102234000B789B0003F1804303F5B8431A6822F43A
:10224400E14222F070021204120C1A600B78013B76
:102254004D4A52F823309847494BD3F8443C99B23D
:102264004A4A118013F4004F93D0484B1B8803F063
:102274000F03444A1370002BC5D1414AD2F8001C05
:1022840089B23D4B1980198801F030013B48018027
:10229400198801F440511980D2F8003C23F480439A
:1022A40023F040031B041B0C83F4005383F020032E
:1022B40043F4004343F08003C2F8003C334B1B88D3
:1022C40013F0100F3FF42CAF2D4BD3F8003C9BB20E
:1022D400ADF80630BDF8063013F4006F7FF45BAF41
:1022E400BDF8063013F4004FB6D0254CD4F8003CAA
:1022F40023F070031B051B0DC4F8003CFFF768FEB8
:10230400D4F8003C23F4804323F040031B041B0C4B
:10231400194A128812F4805F01D083F48053164A5C
:10232400128812F4005F01D083F40053134A128818
:1023340012F0100F01D083F01003104A128812F02B
:10234400200F01D083F020039BB243F4004343F0F9
:1023540080030B4AC2F8003C1BE71A6822F07002A3
:102364001205120D1A60074B1B78013B084A52F8FC
:102374002330984756E700BF6A0200206C02002011
:102384000050004058020020380100206E02002056
:102394005401002008B511E012F0800F0ED01A6825
:1023A40022F4E14222F070021204120C1A60194B5A
:1023B4001B78013B184A52F823309847174BD3F83F
:1023C400443C99B2164A118013F4004F21D0134BA8
:1023D40047F6FF72C3F8442C114B1B8803F00F031C
:1023E4000C4A13709B0003F1804303F5B8431A6849
:1023F40012F4004FD0D01A6822F070021205120DA8
:102404001A60044B1B78013B064A52F82330984764
:10241400D4E708BD580200203801002000500040D5
:102424006E020020540100200132521001F10051CB
:1024340001F54051490008E0037890F801C043EAEF
:102444000C2321F8043B0230013A002AF4D17047EE
:102454000132521001F1005101F54051490004E0EC
:1024640051F8043B20F8023B013A002AF8D17047A6
:1024740020F0070080B2024BC3F8500C704700BF35
:1024840000500040800000F1804000F5B84003682F
:102494001BB223F4EC4323F070030B439BB20360A1
:1024A4007047800000F1804000F5B84003689BB29B
:1024B40023F4E04323F040039BB211F0100F01D04A
:1024C40083F0100311F0200F01D083F0200343F4B4
:1024D400004343F0800303607047800000F18040B4
:1024E40000F5B84003689BB223F4804323F07003E3
:1024F4009BB211F4805F01D083F4805311F4005F28
:1025040001D083F4005343F4004343F08003036099
:102514007047800000F1804000F5B84003689BB22A
:1025240023F4804323F0700383F4405343F40043C3
:1025340043F0800303607047800000F1804000F5A1
:10254400B84003681BB223F4F8731B051B0D43F456
:10255400004343F0800303607047800000F1804033
:1025640000F5B840036813F4804F09D0036823F0E2
:10257400F0031B051B0D43F4404343F08003036049
:102584007047800000F1804000F5B840036813F004
:10259400400F09D0036823F0F0031B051B0D43F41F
:1025A400004343F0C0030360704700004908074B31
:1025B400D3F8503C9BB203EBC00000F1005000F58F
:1025C4004050400049000160704700BF0050004087
:1025D4004908064BD3F8503C9BB203EBC000044BB4
:1025E40003445B0049001960704700BF005000407D
:1025F40004300020064BD3F8503C9BB203EBC000E0
:1026040000F1005000F5405040000088704700BFC2
:1026140000500040054BD3F8503C9BB203EBC00084
:10262400034B03445B001888704700BF0050004010
:1026340004300020054BD3F8503C9BB203EBC000A0
:10264400034B03445B001960704700BF0050004017
:10265400023000200E4BD3F8503C9BB203EBC00079
:102664000C4B03445B003E290AD94A0911F01F0FA1
:1026740001D1013A92B2920242F400421A607047C8
:102684004A0811F0010F00D0013292021A6070471B
:102694000050004006300020064BD3F8503C9BB25B
:1026A40003EBC000044B03445B001868C0F309004B
:1026B400704700BF0050004006300020C3B2000A3B
:1026C40040EA032070470000054B0020C3F8440C87
:1026D4004FF4044203490A80C3F8402C704700BFFA
:1026E400005000406802002010B582B04FF4C06072
:1026F400FEF796FD14238DF8043001248DF805406F
:102704008DF806408DF8074001A8FEF793FD1323CA
:102714008DF804308DF8054000238DF806308DF8CF
:10272400074001A8FEF786FD02B010BD10B50D4CA0
:1027340002212046FEF721FE0120FFF7ADFF0246ED
:10274400C0210948FFF784FE4FF440510120FFF7F0
:10275400C4FE0648FDF766FE02212046FEF70BFE86
:1027640010BD00BF00080140F40100200C2B00083C
:1027740008B5FFF7DBFF08BD10B50D4C022120465C
:10278400FEF7FBFD40224FF480710A48FFF74CFE30
:1027940040210020FFF74EFF30210220FFF781FE89
:1027A4000548FDF73FFE02212046FEF7E4FD10BD7B
:1027B40000080140F80000201C2B000808B5FFF7B2
:1027C400DBFF08BD08B5FFF7E5FD08BD08B5104BF4
:1027D400D3F8443C9BB20F4A138013880E4A1288E4
:1027E40003F400431A4210D10A4B1B880A4A128888
:1027F40003F480631A4207D0054B4FF6FF32C3F847
:10280400442C064B5B68984708BDFFF783FCEBE755
:10281400005000406E020020680200207001002079
:1028240008B103487047034B1B68DA881A82704763
:10283400700200205C020020812801D00220704731
:1028440010B5054B1B68054A9A6100245C8220463A
:10285400FFF7E6FF204610BD5C0200202528000893
:102864000220704709B910B970470220704702204E
:1028740070470000014B04221A6070477C0200205C
:1028840010B50024074B9C72074B0122C3F8402C5F
:10289400C3F8404CC3F8444CFFF716FF034B1C60CD
:1028A40010BD00BF3C020020005000407C0200200C
:1028B40038B52B4B1B6800249C72DC72294AD279F0
:1028C4005A722046FFF7D4FD4FF400712046FFF7FB
:1028D400D9FD10212046FFF7E4FD40212046FFF7F3
:1028E40077FE80212046FFF761FE2046FFF724FE95
:1028F4001D4D95F82C102046FFF7ACFE2046FFF73F
:1029040008FE21460120FFF7BDFDC0210120FFF78D
:102914005FFE95F82C100120FFF79CFE4FF4405108
:102924000120FFF7DAFD21460120FFF7BAFD214619
:102934000220FFF7A7FD4FF480710220FFF736FE57
:1029440030210220FFF7ADFD21460220FFF7C5FD2F
:102954002046FFF767FB054B01221A6038BD00BF14
:102964005C020020B02A0008700100207C020020D4
:1029740008B50249FFF7BCFA08BD00BFC00000203B
:1029840008B50249FFF7B4FA08BD00BFB80000203B
:1029940008B5064B1B68DB78042B05D8044901EB0A
:1029A400C301FFF7A5FA08BD0020FCE75C02002084
:1029B400C800002008B5074B1B689B7A03B908BD03
:1029C400054B05221A600220FFF7DBFD0120FFF70B
:1029D400C4FDF4E75C0200207C0200200C480D4991
:1029E4000D4A002302E0D458C4500433C4188C4266
:1029F400F9D30A4A0A4C002301E013600432A242CC
:102A0400FBD3FEF709FBFDF72FFCFEF74DFB7047E8
:102A140000000020C8010020302B0008C80100205D
:102A240080020020FEE70000F8B500BFF8BC08BC37
:102A34009E467047F8B500BFF8BC08BC9E46704778
:102A4400040000200000000000000000000000005E
:102A54000000000000000000000000000000000072
:102A64000000000000000000000000000000000062
:102A74000000000000000000000000000000000052
:102A84000000000000000000000000000000000042
:102A94000000000000000000000000000000000032
:102AA400000000004D41494E0000000009022000D2
:102AB400010100E0320904000002FF0000000705E4
:102AC40001024000000705820240000012010002DA
:102AD400FF000040ADDE0DF0000101020301000023
:102AE4000403090410035500530042002000580059
:102AF40058005800120356006C006100640069001D
:102B04006D00690072000000575249544520444545
:102B1400564943450000000052454144204445566F
:042B240049434500DC
:042B28004D02000852
:042B2C002502000876
:102B30000400002000000000882A0008682A00081D
:102B4000482A00080000000000000000000000000B
:102B50000000000000000000000000000000000075
:102B60000000000000000000000000000000000065
:102B70000000000000000000000000000000000055
:102B80000000000000000000000000000000000045
:102B90000000000048656C6C6F2066726F6D2055F8
:102BA0005342206465766963652053544D33322166
:102BB00021210A48656C6C6F2066726F6D20555339
:102BC00042206465766963652053544D3332212178
:102BD00021210A000204060800000000010203048B
:102BE0000102030406070809B02A000820000000BB
:102BF000D02A000812000000E42A000804000000A7
:102C0000F82A000812000000E82A0008100000005E
:102C1000E80000201000000010035500530042009F
:102C2000540045005300540048656C6C6F20667278
:102C30006F6D205553422064657669636520535457
:102C40004D33322B2B2B0A48656C6C6F2066726FEC
:102C50006D20555342206465766963652053544D59
:102C600033322B2B2B2B0A00DD200008C127000854
:102C7000DD200008DD200008DD200008DD20000840
:102C8000DD20000875270008DD200008DD20000891
:102C9000DD200008DD200008DD200008DD20000820
:102CA00085280008B5280008DD200008DD20000880
:102CB0003D280008652800086928000875290008D3
:102CC0008529000895290008000000004000000048
:102CD00003010000DD200008B9290008DD200008FC
:102CE000DD200008DD200008DD200008DD200008D0
:082CF000DD200008792800082E
:04000005080029E1E5
:00000001FF
