:020000040800F2
:10000000D8050020711A0008D11A0008D11A00087A
:10001000D11A0008D11A0008D11A00080000000007
:10002000000000000000000000000000D11A0008DD
:10003000D11A000800000000D11A0008D11A0008E7
:10004000D11A0008D11A0008D11A0008D11A0008E4
:10005000D11A0008D11A0008D11A0008D11A0008D4
:10006000D11A0008D11A0008D11A0008D11A0008C4
:10007000D11A0008D11A0008D11A0008D11A0008B4
:10008000D11A0008D11A0008D11A0008A9340008B2
:10009000B5340008D11A0008D11A0008D11A000896
:1000A000D11A0008D11A0008D11A0008D11A000884
:1000B000D11A0008D11A0008D11A0008D11A000874
:1000C000D11A0008D11A0008D11A0008D11A000864
:1000D000D11A0008D11A0008D11A0008D11A000854
:1000E000D11A0008D11A0008D11A0008D11A000844
:1000F000D11A0008D11A0008D11A0008D11A000834
:10010000D11A0008D11A0008D11A0008D11A000823
:10011000D11A0008D11A0008D11A0008D11A000813
:10012000D11A0008D11A0008D11A0008D11A000803
:100130005FF808F180B582B000AF0346FB80FB8812
:10014000002B05D1084B1B6801221A82002306E010
:10015000064B1B681B689847034B1B680A331846FD
:100160000837BD4680BD00BF400100203C01002093
:1001700080B500AF0F4B1B68DA780F4B5B789A4263
:1001800015D80C4B1B689B78002B10D1094B1B68B2
:100190009B88002B0BD1074B1B68064A1268D2784C
:1001A0009A72064B1B685B689847002300E00223A5
:1001B000184680BD40010020540000203C01002072
:1001C00080B582B000AF0346FB80FB88002B05D1D1
:1001D000084B1B6801221A82002306E0064B1B68AD
:1001E0009B689847034B1B680C3318460837BD467D
:1001F00080BD00BF400100203C01002080B582B0DE
:1002000000AF1D4B1B689B691C4A126850791B4A42
:100210001268D278114698470346FB71174B1B684A
:100220009B7A002B23D0FB79002B09D1134B1B6841
:100230001B79002B04D1114B1B689B78002B01D03C
:10024000022315E0FB79002B11D10D4B1B68DB68F5
:1002500098470A4B1B68094A12685279DA72074BB1
:100260001B68064A1268D2781A73002300E0022342
:1002700018460837BD4680BD180100204001002007
:100280003C01002080B584B000AF0346FB80FB88B2
:10029000002B05D1464B1B6802221A82002382E004
:1002A000444B00221A80424B1B681B7803F07F03EB
:1002B000002B2CD13E4B1B685B7A7B737B7B03F05E
:1002C0002003002B07D03B4B1B7843F00203DAB22C
:1002D000384B1A7006E0374B1B7823F00203DAB272
:1002E000344B1A707B7B03F04003002B07D0314B5B
:1002F0001B7843F00103DAB22E4B1A704EE02D4BFF
:100300001B7823F00103DAB22A4B1A7046E0284B1F
:100310001B681B7803F07F03012B01D1254B42E0C2
:10032000234B1B681B7803F07F03022B34D1204B37
:100330001B685B79FB73FB7B03F00F03BB7397F9BF
:100340000F30002B13DABB7B9B0003F1804303F5D6
:10035000B8431B689BB203F03003102B1ED1154B22
:100360001B7843F00103DAB2124B1A7016E0BB7B24
:100370009B0003F1804303F5B8431B689BB203F471
:100380004053B3F5805F09D10A4B1B7843F001035A
:10039000DAB2084B1A7001E0002304E0064B1B6838
:1003A0001B699847034B18461037BD4680BD00BFF8
:1003B00040010020000100203C01002090B587B0E2
:1003C00000AF6F4B1B681B7803F07F033B613B69F9
:1003D000002B0AD16A4B1B68694A1268527A22F0D4
:1003E0002002D2B25A720023C6E03B69022B40F0D1
:1003F000C280634B1B685B88002B04D1604B1B6879
:100400001B79002B01D00223B6E05E4BFB605C4BF6
:100410001B685B79BB60BB6823F080037B607B68F3
:100420003B60574B1B685B795BB2002B0BDA3B6878
:100430009B0003F1804303F5B8431B689BB203F0B4
:1004400030037B610AE03B689B0003F1804303F5C6
:10045000B8431B689BB203F440537B61FB681B7875
:100460001A467B689A4207D97B69002B04D0444B1B
:100470001B689B7A002B01D102237DE0BB6803F04F
:100480008003002B17D03B689B0003F1804303F5EA
:10049000B8431B689BB203F03003102B65D13B6857
:1004A000DBB2184601F03CFC3B68DBB23021184659
:1004B00001F04AFB59E03B689B0003F1804303F5E0
:1004C000B8431B689BB203F44053B3F5805F4CD133
:1004D0003B68002B27D13B68DAB22B4B93F82C30CA
:1004E0009BB21946104601F0DFFC3B689B0003F10C
:1004F000804303F5B8431B689BB223F4804323F089
:1005000070039CB284F480539CB284F400539CB278
:100510003B689B0003F1804303F5B8431B4A224329
:1005200092B21A6021E03B68DBB2184601F0CAFBC8
:100530003B689B0003F1804303F5B8431B689BB203
:1005400023F4804323F070039CB284F480539CB264
:1005500084F400539CB23B689B0003F1804303F595
:10056000B8430A4A224392B21A60094B1B685B697E
:100570009847002300E0022318461C37BD4690BD73
:100580004001002054000020580000208080FFFF20
:100590003C01002090B585B000AF3F4B1B685B79F4
:1005A000BB60BB6823F080037B607B683B603A4B99
:1005B0001B685B795BB2002B0BDA3B689B0003F195
:1005C000804303F5B8431B689BB203F03003FB6024
:1005D0000AE03B689B0003F1804303F5B8431B68C6
:1005E0009BB203F44053FB602C4B1B781A463B68CC
:1005F0009A420CD9284B1B685B88002B07D1FB68FB
:10060000002B04D0244B1B689B7A002B01D10223C2
:100610003EE0BB6803F08003002B1AD03B689B00D0
:1006200003F1804303F5B8431B689BB223F4E04316
:1006300023F040039CB284F010039CB23B689B0003
:1006400003F1804303F5B843154A224392B21A607E
:1006500019E03B689B0003F1804303F5B8431B6836
:100660009BB223F4804323F070039CB284F4805344
:100670009CB23B689B0003F1804303F5B843084AF2
:10068000224392B21A60074B1B689B69984700236C
:1006900018461437BD4690BD40010020540000208C
:1006A0008080FFFF3C01002080B500AF074B1B6836
:1006B000064A1268527A42F02002D2B25A72044BB1
:1006C0001B68DB6998470023184680BD4001002065
:1006D0003C01002080B485B000AF03463960FB8048
:1006E0000D4B1B685B8AFB60FB88002B0AD10A4B11
:1006F0001B683A689188FA6892B28A1A92B21A8292
:10070000002303E03B681A68FB681344184614375B
:10071000BD4680BC704700BF4001002080B584B05A
:1007200000AF3A4B1B681033BB60BB681B887B6013
:10073000BB689B68002B2DD07B68002B2AD0BB6840
:100740009B88FB60FA687B689A4201D97B68FB60F2
:10075000BB689B68FA6892B2104698473860BB68DD
:100760001A88FB689BB2D31A9AB2BB681A80BB681E
:100770005A88FB689BB213449AB2BB685A80002027
:1007800001F05AFB03461946FB689BB21A463868CB
:1007900002F05CFEBB681B88002B0AD01C4B4FF498
:1007A00040521A800021002001F060FB194B3022DA
:1007B0001A80BB681A88BB689B889A4204D3134B83
:1007C0001B6803221A721DE0BB681B88002B04D033
:1007D0000E4B1B6805221A7214E0BB681B88002BA5
:1007E00010D10A4B1B6806221A720B4B1B689BB276
:1007F0001A460A4B13445B001A4600231360054B4C
:1008000030221A8000BF1037BD4680BD4001002055
:100810000401002006010020505C0040023000204E
:1008200080B586B000AF3B4B1B681033FB60FB68A4
:100830001B88BB60374B1B681B7A7B61BB68002B36
:100840001FD17B69042B1CD1334B1B78012B12D198
:10085000324B1B689BB21A46314B13445B001A465D
:10086000002313602F4B30221A8004237B612A4B14
:1008700000221A7045E007237B612A4B10221A8060
:100880003FE0FB689B883B61BA683B699A4201D8AC
:10089000042300E002237B613A69BB689A4201D9D4
:1008A000BB683B61FB689B683A6992B21046984707
:1008B0007860002001F0A6FA034619463B699BB216
:1008C0001A46786802F088FD3B699BB21946002001
:1008D00001F0CCFAFB681A883B699BB2D31A9AB232
:1008E000FB681A80FB685A883B699BB213449AB232
:1008F000FB685A800B4B30221A800B4B4FF440524E
:100900001A80044B1B687A69D2B21A7200BF18377A
:10091000BD4680BD40010020F8000020505C004032
:1009200002300020060100200401002080B584B0C0
:1009300000AF0223FB735D4B1B685B787B605B4BF6
:100940001B681B7803F07F03002B56D17B68092BB3
:1009500004D1FFF70DFC0346FB7376E07B68052BA3
:100960001AD1524B1B68DB785BB2002B0EDB4F4B6E
:100970001B689B78002B09D14C4B1B689B88002B74
:1009800004D14A4B1B689B7A002B02D00823BB6022
:1009900082E00023FB7358E07B68032B11D1434BAB
:1009A0001B68DB78012B09D1404B1B689B88002B0F
:1009B00004D1FFF779FE0346FB7346E00223FB7385
:1009C00043E07B68012B40D1384B1B68DB78012B5F
:1009D00010D1364B1B689B88002B0BD1334B1B6807
:1009E0005B7A03F02003002B04D0FFF7E7FC0346FB
:1009F000FB732AE00223FB7327E02C4B1B681B7858
:100A000003F07F03012B07D17B680B2B1DD1FFF770
:100A1000F5FB0346FB7318E0244B1B681B7803F0BF
:100A20007F03022B0FD17B68012B04D1FFF7C6FC9B
:100A30000346FB7309E07B68032B06D1FFF7AAFD91
:100A40000346FB7301E00223FB73FB7B002B0ED0FC
:100A5000174B1B685B697A68D2B210469847034609
:100A6000FB73FB7B032B02D10923BB6014E0FB7BF0
:100A7000002B02D00823BB600EE00623BB600D4BA9
:100A80001B689BB21A460C4B13445B001A460023AA
:100A900013600A4B30221A80044B1B68BA68D2B22A
:100AA0001A7200BF1037BD4680BD00BF4001002054
:100AB00018010020505C0040023000200601002098
:100AC00080B58AB000AF944B1B685B78BB61002394
:100AD0007B6200237B61BB69062B24D18E4B1B6894
:100AE0001B7803F07F03002B40F0D4808A4B1B68F7
:100AF0009B78FB74FB7C012B04D1884B1B68DB6962
:100B00007B62C7E0FB7C022B04D1844B1B681B6A11
:100B10007B62BFE0FB7C032B40F0BC807F4B1B68FB
:100B20005B6A7B62B6E0BB69002B78D17A4B1B68AD
:100B30005B88002B73D1784B1B68DB88022B6ED14E
:100B4000754B1B681B79002B69D1734B1B681B7895
:100B500003F07F03002B07D16F4B1B689B88002B92
:100B600002D16F4B7B6294E06B4B1B681B7803F0E8
:100B70007F03012B14D1694B1B689B69664A12687D
:100B800052790021104698470346002B40F081809F
:100B9000614B1B689B7A002B7BD0614B7B6278E0BA
:100BA0005D4B1B681B7803F07F03022B71D15A4BFE
:100BB0001B685B7903F00F03FB60574B1B685B7985
:100BC00003F07003BB60544B1B685B795BB2002B76
:100BD0000BDAFB689B0003F1804303F5B8431B6805
:100BE0009BB203F03003FB610AE0FB689B0003F15A
:100BF000804303F5B8431B689BB203F44053FB6189
:100C0000484B1B781A46FB689A4242D9BB68002BB6
:100C10003FD1FB69002B3CD0414B7B6239E0BB6983
:100C2000082B09D13C4B1B681B7803F07F03002B7A
:100C300030D13D4B7B622DE0BB690A2B2AD1364B6C
:100C40001B681B7803F07F03012B23D1324B1B68F9
:100C50009B7A002B1ED0304B1B685B88002B19D170
:100C60002D4B1B681B79002B14D12B4B1B68DB8889
:100C7000012B0FD1294B1B689B69274A12685279B7
:100C80000021104698470346002B03D1274B7B6277
:100C900000E000BF7B6A002B0FD01F4B1B687A69F6
:100CA00092B25A821C4B1B687A6A9A617B6A002056
:100CB0009847002387F8233013E0184B1B681B6903
:100CC000154A1268527810469847034687F8233031
:100CD00097F82330032B04D10F4B1B6809221A729B
:100CE00078E00D4B1B681B8A4FF6FF72934204D1CC
:100CF000094B1B6809221A726CE097F82330022B0B
:100D000004D0054B1B681B8A002B11D1024B1B68BA
:100D100008221A725EE000BF400100201801002086
:100D2000850200085400002035010008C1010008B8
:100D30002A4B1B681B785BB2002B42DA274B1B68DF
:100D4000DB887B60254B1B681B8A1A467B689A42AE
:100D500005D9224B1B687A6892B21A8226E01F4B93
:100D60001B681A8A1D4B1B68DB889A421ED21B4BDC
:100D70001B681A8A1A4B1B6893F82C309BB29A4254
:100D800003D2184B00221A7010E0144B1B681B8A08
:100D9000134A126892F82C2093FBF2F102FB01F245
:100DA0009B1A002B02D10F4B01221A700B4B1B68B0
:100DB0000B4A126892F82C2092B29A82FFF730FD0B
:100DC00008E0064B1B6803221A72074B4FF440528F
:100DD0001A8000BF2837BD4680BD00BF40010020FB
:100DE00018010020F80000200401002090B583B015
:100DF00000AF0123FB80304B1B689BB21A462F4B80
:100E000013445B001B689BB25B0003F1804303F556
:100E1000C0433B602A4B1B681B7A092B37D0284BF9
:100E20001A683B68591C39601B781370244B1A6888
:100E30003B68591C39601B7853703A68FB885B002B
:100E400013443B601E4B1C683B689A1C3A601B882D
:100E5000184601F089F8034663803A68FB885B0016
:100E600013443B60164B1C683B689A1C3A601B8815
:100E7000184601F079F80346A3803A68FB885B00C6
:100E800013443B600E4B1B683A681288DA800C4BA7
:100E90001B6801221A720A4B1B68DB88002B02D1E7
:100EA000FFF744FD01E0FFF70BFE00F08DF803466D
:100EB00018460C37BD4690BD505C00400430002001
:100EC0004001002080B582B000AF1F4B1B681B7A29
:100ED0007B607B68022B02D07B68042B06D1FFF776
:100EE0009FFC194B1B681B7A7B6021E07B68062BFB
:100EF0001CD1154B1B685B78052B10D1124B1B685E
:100F00001B7803F07F03002B09D10F4B1B68DB78A4
:100F1000184600F081F80D4B1B681B6A98470C4B74
:100F20001B689B68984708237B6001E008237B606F
:100F3000054B1B687A68D2B21A7200F045F8034676
:100F400018460837BD4680BD400100203C01002006
:100F50001801002080B582B000AF194B1B681B7AC6
:100F60007B607B68022B02D07B68042B02D10823B4
:100F70007B6018E07B68032B02D07B68052B06D1D1
:100F8000FFF7CCFB0E4B1B681B7A7B600BE07B688A
:100F9000072B06D10B4B1B68DB68984708237B6047
:100FA00001E008237B60064B1B687A68D2B21A7294
:100FB00000F00AF8034618460837BD4680BD00BF5A
:100FC000400100201801002080B500AF0E4B93F8BF
:100FD0002C309BB21946002000F066FF0B4B1B68BB
:100FE0001B7A082B06D10A4B4FF480521A80094B0A
:100FF00010221A80054B1B681B7A092B0CBF01239A
:101000000023DBB2184680BD5800002040010020BC
:10101000040100200601002080B485B000AF034623
:10102000FB711A4B1B78BB600023FB601EE0FB6862
:10103000DBB29B0003F1804303F5B843FA68D2B2F8
:10104000920002F1804202F5B842126892B2114653
:1010500040F60F720A4042F4004242F08002F96802
:10106000C9B20A431A60FB680133FB60FA68BB68C7
:101070009A42DCD3064AFB7963F07F03DBB213604C
:1010800000BF1437BD4680BC704700BF540000202D
:101090004C5C004080B400AF00BFBD4680BC7047D0
:1010A00080B58AB000AF0121082001F0C9FB40F2F1
:1010B0000223BB84032387F82630102387F82730C8
:1010C00007F1240319465D4800F08AFF4FF40071D0
:1010D0005A4801F041F80221584801F03DF8012139
:1010E000102001F0ADFB2023BB84032387F82630BA
:1010F000102387F8273007F124031946504800F0E1
:101100006FFF20214E4801F027F80121042001F053
:1011100097FB4FF48063BB84032387F826301023AA
:1011200087F8273007F124031946464800F058FF96
:10113000182387F82730E023BB84032387F8263061
:1011400007F1240319463F4800F04AFF102387F8AF
:1011500027300A23BB84032387F8263007F12403B2
:101160001946384800F03CFF4FF44063BB8403232A
:1011700087F826301C2387F8273007F12403194607
:101180002E4800F02DFF4FF48053BB84022387F8D4
:101190002630102387F8273007F124031946274803
:1011A00000F01EFF01214FF4805001F049FB3B4647
:1011B000184601F0D3FE00233B800023BB804FF490
:1011C00082737B800023FB812023BB8100233B8132
:1011D0000023FB804FF400737B813B4619461A487D
:1011E00001F078FE0121184801F0DCFE01214FF4E6
:1011F000800001F043FB07F11403184601F0DEFF05
:1012000000233B834BF6FF737B831523BB834FF493
:101210008063FB834FF480433B840C4B7B6107F17D
:10122000140319460A4801F007FF0121084801F09C
:10123000E3FF00BF2837BD4680BD00BF000C014062
:10124000001001400008014000300140801A0600F3
:101250000058004080B500AF01F004F94FF4803031
:1012600001F02EF901F05AF903461A46184B1A708C
:10127000174B1B78012B29D1102001F08BFB02208A
:1012800001F06CFB002001F0C9F9002001F0FEF92B
:101290004FF4806001F0DEF94FF4E0114FF480303C
:1012A00001F064F9012001F07FF900BF392001F05D
:1012B00003FB0346002BF9D0022001F085F900BFA3
:1012C00001F09EF90346082BFAD100E0FEE780BD4D
:1012D0000201002080B500AF002001F0F3F90121E8
:1012E0004FF4000001F0CAFA00BF80BD80B582B0A3
:1012F00000AF0346FB71FB799BB21946074801F02A
:1013000071FE00BF0221054801F07AFE0346002B62
:10131000F8D000BF0837BD4680BD00BF0030014097
:1013200080B483B000AF78600A4B1B680A4AA2FB06
:101330000323DB0D7A6802FB03F37B6000BF7B684D
:101340005A1E7A60002BFAD100BF0C37BD4680BC14
:10135000704700BF00000020B5FA9BEE80B500AFDB
:1013600008212C4800F006FF41F28830FFF7D8FF33
:101370000A21002000F052F841F28830FFF7D0FF38
:101380000221012000F04AF80221022000F046F874
:101390000121032000F042F85F21042000F03EF814
:1013A00000F05EF800211D2000F038F800211C201C
:1013B00000F034F87021072000F030F84C210520AF
:1013C00000F02CF81020FFF791FFA320FFF78EFF0D
:1013D000A220FFF78BFFA120FFF788FF0B20FFF76C
:1013E00085FFA320FFF782FFA220FFF77FFFA12048
:1013F000FFF77CFF2021122000F010F800F070F8B9
:101400000021002001F002FC0021034801F042FC11
:1014100000BF80BD00080140C435000880B582B01F
:1014200000AF03460A46FB711346BB71FB7943F0DC
:101430002003FB710221094800F08EFEFB7918465B
:10144000FFF754FFBB791846FFF750FF022103480E
:1014500000F090FE00BF0837BD4680BD0008014087
:1014600080B500AF0221094800F076FE5020FFF75A
:101470003DFF0120FFF754FF7320FFF737FF0221E4
:10148000024800F077FE00BF80BD00BF00080140A9
:1014900080B500AF0221074800F05EFEE220FFF7B2
:1014A00025FF0120FFF73CFF0221024800F062FE09
:1014B00000BF80BD0008014080B500AF0221074891
:1014C00000F04AFEE120FFF711FF0120FFF728FF9F
:1014D0000221024800F04EFE00BF80BD000801401E
:1014E00080B500AF0B210020FFF798FF08210648C8
:1014F00000F032FE9620FFF713FFFFF7C9FFFFF75A
:10150000DBFF00BF80BD00BF0008014090B583B085
:1015100000AF0023FB8062E1844B1B889BB2DBB2EF
:1015200003F00F03DAB2824B1A70814B1B78002B49
:1015300040F008817F4B1B689AB27F4B1A807E4B2C
:101540001B889BB203F030039AB27C4B1A807A4B13
:101550001B889BB203F440539AB2774B1A80754BA9
:101560001B689BB24BF6BF741C4084F4005484F09B
:1015700020047049A2B2724B13439BB20B606B4BB9
:101580001B889BB203F01003002B3FD1694A694BC3
:101590001B689BB2194648F60F730B401360FFF7A8
:1015A00091FC644B1B689BB24BF6BF741C40624BB2
:1015B0001B889BB203F480539BB2002B01D084F4B0
:1015C00080545D4B1B889BB203F400539BB2002BED
:1015D00001D084F40054594B1B889BB203F01003D4
:1015E0009BB2002B01D084F01004544B1B889BB29B
:1015F00003F020039BB2002B01D084F020044D495E
:10160000A2B24F4B13439BB20B60F2E0494B1B68F5
:101610009BB2FB80FB889BB203F40063002B3FD09E
:10162000444A444B1B689BB2194640F68F730B40EB
:101630001360FFF7DBFB3F4B1B689BB24BF6BF749D
:101640001C403D4B1B889BB203F480539BB2002B84
:1016500001D084F48054384B1B889BB203F40053B0
:101660009BB2002B01D084F40054344B1B889BB2F6
:1016700003F010039BB2002B01D084F010042F4B19
:101680001B889BB203F020039BB2002B01D084F097
:1016900020042849A2B22A4B13439BB20B60A8E056
:1016A000FB889BB21BB2002B80F29980214A214B10
:1016B0001B689BB2194640F68F730B401360FFF70F
:1016C00049FC1C4B1B689BB24BF6BF741C401A4B69
:1016D0001B889BB203F480539BB2002B01D084F48F
:1016E0008054154B1B889BB203F400539BB2002B14
:1016F00001D084F40054114B1B889BB203F01003FB
:101700009BB2002B01D084F010040C4B1B889BB2C1
:1017100003F020039BB2002B01D084F02004054984
:10172000A2B2074B13439BB20B6062E0D4010020CE
:101730001C010020005C0040040100200601002084
:101740008080FFFF2C4B1B789B0003F1804303F547
:10175000B8431B689BB2FB80FB889BB21BB2002B7B
:101760001BDA254B1B789B0003F1804303F5B8433C
:10177000214A1278920002F1804202F5B8421268C2
:1017800092B2114640F68F720A401A601A4B1B78CB
:10179000013B1A4A52F823309847FB889BB203F06A
:1017A0008003002B1BD0144B1B789B0003F180435C
:1017B00003F5B843104A1278920002F1804202F514
:1017C000B842126892B2114648F60F720A401A6087
:1017D000094B1B78013B0A4A52F823309847094BC2
:1017E0001B689AB2084B1146198013B2002BFFF602
:1017F00093AE0C37BD4690BD1C010020DC000020DC
:10180000C0000020445C0040D401002080B582B0BC
:1018100000AF00237B6059E0334B47F6FF721A603C
:10182000324B1B889BB2DBB203F00F03DAB2304BB2
:101830001A702F4B1B789B0003F1804303F5B843CC
:101840001B689BB27B607B6803F40043002B1CD0B9
:10185000274B1B789B0003F1804303F5B843244AD0
:101860001278920002F1804202F5B842126892B2F8
:10187000114640F68F720A401A601D4B1B78013BDF
:101880001C4A52F82330984720E07B6803F080031D
:10189000002B1BD0164B1B789B0003F1804303F5F4
:1018A000B843134A1278920002F1804202F5B8421E
:1018B000126892B2114648F60F720A401A600C4B39
:1018C0001B78013B0C4A52F823309847064B1B68A3
:1018D0009AB2064B1146198013B2002B9CDB00BF55
:1018E0000837BD4680BD00BF445C0040D4010020E5
:1018F0001C010020DC000020C000002080B500AFEB
:10190000154A154B1B6843F0010313601249124B33
:101910005A68124B13404B600F4A0F4B1B6823F061
:10192000847323F4803313600B4A0B4B1B6823F43E
:1019300080231360084A084B5B6823F4FE0353605E
:10194000054B4FF41F029A6000F00CF8044B4FF067
:1019500000629A6000BF80BD001002400000FFF8E6
:1019600000ED00E080B500AF00F002F800BF80BDE0
:1019700080B483B000AF00237B6000233B603A4A11
:10198000394B1B6843F480331360374B1B6803F4F7
:1019900000333B607B6801337B603B68002B03D1E5
:1019A0007B68B3F5A06FF0D12F4B1B6803F40033B5
:1019B000002B02D001233B6001E000233B603B6829
:1019C000012B4BD1294A294B1B6843F010031360AC
:1019D000264A264B1B6823F003031360234A234B3C
:1019E0001B6843F0020313601F4A1F4B5B68536080
:1019F0001D4A1D4B5B6853601B4A1B4B5B6843F4DD
:101A000080635360184A184B5B6823F47C1353605F
:101A1000154A154B5B6843F4E8135360124A124BA6
:101A20001B6843F08073136000BF0F4B1B6803F00B
:101A30000073002BF9D00C4A0B4B5B6823F00303B7
:101A40005360094A084B5B6843F00203536000BFD0
:101A5000054B5B6803F00C03082BF9D100BF0C3772
:101A6000BD4680BC704700BF00100240002002400D
:101A700080B582B000AF114B7B60114B3B6007E03B
:101A80003B681A1D3A607A68111D796012681A6005
:101A90003B680C4A9342F3D30B480C494FF00002C9
:101AA0008842B8BF40F8042BFADBFFF727FF00F0AD
:101AB000BFFC00BF0837BD4680BD00BFB83A000874
:101AC00000000020F8000020F8000020D8010020CD
:101AD00080B400AFFEE700BF80B483B000AF034620
:101AE000FB800549FA884FF6F87313400B6000BF7E
:101AF0000C37BD4680BC7047505C004080B483B05A
:101B000000AF03460A46FB711346BB80FB799B007E
:101B100003F1804303F5B843FA79920002F1804261
:101B200002F5B842126812B222F4EC4222F07002BE
:101B300011B2B7F904200A4312B292B21A6000BF80
:101B40000C37BD4680BC704790B482B000AF0346EE
:101B50000A46FB711346BB80FB799B0003F180436F
:101B600003F5B8431B689BB223F4E04323F0400322
:101B70009CB2BB8803F010039BB2002B02D084F010
:101B800010039CB2BB8803F020039BB2002B02D051
:101B900084F020039CB2FB799B0003F1804303F5A2
:101BA000B843044A224392B21A6000BF0837BD46C8
:101BB00090BC70478080FFFF90B482B000AF0346B6
:101BC0000A46FB711346BB80FB799B0003F18043FF
:101BD00003F5B8431B689BB223F4804323F07003E2
:101BE0009CB2BB8803F480539BB2002B02D084F4D8
:101BF00080539CB2BB8803F400539BB2002B02D0ED
:101C000084F400539CB2FB799B0003F1804303F5FD
:101C1000B843044A224392B21A6000BF0837BD4657
:101C200090BC70478080FFFF90B482B000AF034645
:101C3000FB71FB799B0003F1804303F5B8431B68FC
:101C40009BB223F4804323F070039CB284F480534E
:101C50009CB284F400539CB2FB799B0003F1804357
:101C600003F5B843044A224392B21A6000BF083712
:101C7000BD4690BC704700BF8080FFFF80B483B03A
:101C800000AF0346FB71FB799B0003F1804303F532
:101C9000B843FA79920002F1804202F5B842126824
:101CA00011B240F60F620A4011B2054A0A4312B25D
:101CB00092B21A6000BF0C37BD4680BC704700BFAF
:101CC0008080FFFF80B483B000AF0346FB71FB79D7
:101CD0009B0003F1804303F5B8431B689BB203F4F8
:101CE0008043002B16D0FB799B0003F1804303F562
:101CF000B843FA79920002F1804202F5B8421268C4
:101D000092B2114640F60F720A4042F4404242F04D
:101D100080021A6000BF0C37BD4680BC704700BF10
:101D200080B483B000AF0346FB71FB799B0003F1E5
:101D3000804303F5B8431B689BB203F04003002BBC
:101D400016D0FB799B0003F1804303F5B843FA7981
:101D5000920002F1804202F5B842126892B2114636
:101D600040F60F720A4042F4004242F0C0021A608C
:101D700000BF0C37BD4680BC704700BF80B483B045
:101D800000AF03460A46FB711346BB800B4B1B6832
:101D90009BB21A46FB79DB00134403F1005303F5B1
:101DA00040535B001A46BB885B089BB25B00136024
:101DB00000BF0C37BD4680BC704700BF505C004080
:101DC00080B483B000AF03460A46FB711346BB8064
:101DD0000A4B1B689BB21A46FB79DB001A44084B7E
:101DE00013445B001A46BB885B089BB25B00136020
:101DF00000BF0C37BD4680BC704700BF505C004040
:101E00000430002080B483B000AF0346FB71094B5F
:101E10001B689BB21A46FB79DB00134403F10053A5
:101E200003F540535B001B689BB218460C37BD4658
:101E300080BC7047505C004080B483B000AF034664
:101E4000FB71084B1B689BB21A46FB79DB001A44F6
:101E5000054B13445B001B689BB218460C37BD460C
:101E600080BC7047505C00400430002080B483B0D8
:101E700000AF03460A46FB711346BB80084B1B6844
:101E80009BB21A46FB79DB001A44064B13445B00F5
:101E90001A46BB88136000BF0C37BD4680BC704734
:101EA000505C00400230002080B485B000AF034693
:101EB0000A46FB711346BB801A4B1B689BB21A463D
:101EC000FB79DB001A44184B13445B00BB60BB88F2
:101ED0003E2B12D9BB885B09FB81BB8803F01F0333
:101EE000002B02D1FB89013BFB81FB899B0243F460
:101EF00000431A46BB681A600FE0BB885B08FB8191
:101F0000BB8803F00103002B02D0FB890133FB8166
:101F1000FB899B021A46BB681A6000BF1437BD4696
:101F200080BC7047505C00400630002080B483B015
:101F300000AF0346FB710A4B1B689BB21A46FB7944
:101F4000DB001A44074B13445B001B689BB2C3F3CE
:101F500009039BB218460C37BD4680BC704700BFD2
:101F6000505C00400630002080B485B000AF0346CE
:101F7000FB80FB88FB73FB881B0A9BB21AB2FB7BBE
:101F80001B021BB213431BB2BB81BB89184614371B
:101F9000BD4680BC704700BF80B582B000AF4FF433
:101FA000C06000F023FF14233B7101237B710123E8
:101FB000BB710123FB713B1D184600F029FF132361
:101FC0003B7101237B710023BB710123FB713B1D1E
:101FD000184600F01DFF00BF0837BD4680BD00BF9A
:101FE00080B489B000AF786039600023FB610023C2
:101FF0003B610023BB610023FB6000237B61002366
:10200000BB603B68DB7803F00F03FB613B68DB7868
:1020100003F01003002B05D03B689B781A46FB6940
:102020001343FB613B681B88DBB2002B44D07B6809
:102030001B687B610023BB6138E00122BB6902FAA7
:1020400003F3FB603B681B881A46FB6813403B6147
:102050003A69FB689A4226D1BB699B00FB600F225C
:10206000FB6802FA03F3BB60BB68DB437A69134089
:102070007B61FA69FB6802FA03F37A6913437B61B7
:102080003B68DB78282B05D10122BB699A407B682D
:102090005A6108E03B68DB78482B04D10122BB6918
:1020A0009A407B681A61BB690133BB61BB69072B2E
:1020B000C3D97B687A691A603B681B88FF2B46D9B5
:1020C0007B685B687B610023BB613AE0BB690833D6
:1020D000012202FA03F3FB603B681B881A46FB6887
:1020E00013403B613A69FB689A4227D1BB699B0068
:1020F000FB600F22FB6802FA03F3BB60BB68DB43A3
:102100007A6913407B61FA69FB6802FA03F37A6922
:1021100013437B613B68DB78282B05D1BB6908330F
:1021200001229A407B685A613B68DB78482B05D1D5
:10213000BB69083301229A407B681A61BB6901338D
:10214000BB61BB69072BC1D97B687A695A6000BF44
:102150002437BD4680BC704780B483B000AF786040
:102160000B467B807A887B681A6100BF0C37BD46BE
:1021700080BC704780B483B000AF78600B467B8032
:102180007A887B685A6100BF0C37BD4680BC7047B7
:1021900080B582B000AF0C4B7B607B6800229A72E6
:1021A0000A4B01221A60094B00221A60084B0022D8
:1021B0001A6000F0BBFB4FF480610648FFF7CCFFCC
:1021C00000BF0837BD4680BD20010020405C0040B4
:1021D000445C00400008014080B500AF2E4B1B68F6
:1021E00000229A722C4B1B680022DA722A4B1B6861
:1021F0002A4AD2795A720020FFF76EFC4FF4007120
:102200000020FFF77BFC10210020FFF79DFC402100
:102210000020FFF7D5FD80210020FFF7AFFD002053
:10222000FFF72CFD1E4B93F82C309BB21946002073
:10223000FFF73AFE0020FFF7F7FC00210120FFF72F
:102240005DFCC0210120FFF7BBFD40210120FFF70D
:102250002BFE4FF440510120FFF7AEFC002101207E
:10226000FFF772FC00210220FFF748FC4FF4807159
:102270000220FFF783FD40210220FFF7F7FD302108
:102280000220FFF761FC00210220FFF795FC0020EF
:10229000FEF7C2FE00BF80BD40010020E835000807
:1022A0005800002080B584B000AF0346FB710023C6
:1022B000FB60FB79812B0ED1094BFB60094B1B683E
:1022C000FA689A61074B1B6800225A82FB6800205B
:1022D0009847002300E0022318461037BD4680BD12
:1022E000E92200084001002080B483B000AF03461B
:1022F000FB80FB88002B07D1064B1B68054A126840
:10230000D2881A82002300E0034B18460C37BD46E2
:1023100080BC7047400100200801002080B483B0D9
:1023200000AF0346FB71022318460C37BD4680BC44
:10233000704700BF80B483B000AF03460A46FB710C
:102340001346BB71BB79002B01D0022305E0FB795A
:10235000002B01D0022300E0002318460C37BD46B5
:1023600080BC704780B582B000AF0346FB80FB881D
:1023700004491846FEF7AEF9034618460837BD462D
:1023800080BD00BF2400002080B582B000AF0346AE
:10239000FB80FB8804491846FEF79CF90346184663
:1023A0000837BD4680BD00BF2C00002080B584B03A
:1023B00000AF0346FB800B4B1B68DB78FB73FB7B9A
:1023C000042B01D9002309E0FB7BDB00064A1A44F9
:1023D000FB8811461846FEF77DF90346184610376C
:1023E000BD4680BD400100203400002080B500AF14
:1023F000094B0A4A1A60084B1B6802221A72084BE2
:10240000084A1A60084B094A1A60054B1B681B688A
:10241000984700BF80BD00BF400100202001002080
:1024200018010020580000203C01002088000020F6
:1024300080B500AFFEF70EFFFEF732FE00F0A8FBFE
:1024400000F008FCFEF78AFFFEF744FFFFF7A4FD4B
:10245000FFF7CCFF4FF400710148FFF77DFEFEE768
:10246000000C014080B400AF134A134B1B6843F0CB
:10247000010313601049104B5A68104B13404B6016
:102480000D4A0D4B1B6823F0847323F480331360D3
:10249000094A094B1B6823F480231360064A064B44
:1024A0005B6823F4FE035360034B4FF41F029A60F2
:1024B00000BFBD4680BC7047001002400000FFF81E
:1024C00080B483B000AF7860134A134B1B6823F4C9
:1024D00080331360104A104B1B6823F48023136071
:1024E0007B68B3F5803F03D0B3F5802F07D00DE0B4
:1024F000094A094B1B6843F48033136006E0064A1F
:10250000054B1B6843F4A023136000BF00BF0C37CA
:10251000BD4680BC704700BF0010024080B582B04D
:1025200000AF00233B600023FB710023BB7131200F
:1025300000F0C2F90346BB713B6801333B603B6866
:10254000B3F5A06F02D0BB79002BF0D0312000F0A2
:10255000B3F90346002B02D00123FB7101E00023F5
:10256000FB71FB7918460837BD4680BD80B485B045
:1025700000AF786039600023FB600A4B5B68FB604A
:10258000FB6823F47C13FB607A683B681343FA68AA
:102590001343FB60034AFB68536000BF1437BD461A
:1025A00080BC70470010024080B483B000AF034687
:1025B000FB71044AFB79136000BF0C37BD4680BC39
:1025C000704700BF6000424280B485B000AF7860C1
:1025D0000023FB60094B5B68FB60FB6823F003038F
:1025E000FB60FA687B681343FB60044AFB68536036
:1025F00000BF1437BD4680BC704700BF00100240CA
:1026000080B400AF044B5B68DBB203F00C03DBB2B9
:102610001846BD4680BC70470010024080B485B0AB
:1026200000AF78600023FB60094B5B68FB60FB68D0
:1026300023F0F003FB60FA687B681343FB60044AF5
:10264000FB68536000BF1437BD4680BC704700BFB5
:102650000010024080B485B000AF78600023FB60BA
:10266000094B5B68FB60FB6823F4E063FB60FA687E
:102670007B681343FB60044AFB68536000BF143758
:10268000BD4680BC704700BF0010024080B485B0DA
:1026900000AF78600023FB60094B5B68FB60FB6860
:1026A00023F46053FB607B68DB00FA681343FB6034
:1026B000034AFB68536000BF1437BD4680BC7047B7
:1026C0000010024080B483B000AF7860034A7B689A
:1026D000136000BF0C37BD4680BC7047D800424233
:1026E00080B487B000AF786000237B6100233B613A
:1026F0000023FB600023BB604C4B5B6803F00C03C2
:102700007B617B69042B07D0082B09D0002B33D1C8
:102710007B68474A1A6033E07B68454A1A602FE0BD
:10272000424B5B6803F470133B61404B5B6803F4FE
:102730008033FB603B699B0C02333B61FB68002BE1
:1027400006D13B693B4A02FB03F27B681A6017E043
:10275000364B5B6803F40033002B06D03B69354AE7
:1027600002FB03F27B681A600AE03B69304A02FB15
:1027700003F27B681A6003E07B682D4A1A6000BF91
:102780002A4B5B6803F0F0037B617B691B097B616B
:10279000294A7B6913441B78DBB2BB607B681A68EB
:1027A000BB68DA407B685A60204B5B6803F4E063E7
:1027B0007B617B691B0A7B611F4A7B6913441B7821
:1027C000DBB2BB607B685A68BB68DA407B689A60A2
:1027D000164B5B6803F460537B617B69DB0A7B61AA
:1027E000154A7B6913441B78DBB2BB607B685A686F
:1027F000BB68DA407B68DA600C4B5B6803F44043EB
:102800007B617B699B0B7B610C4A7B6913441B7862
:10281000DBB2BB607B68DA68BB68B2FBF3F27B6853
:102820001A6100BF1C37BD4680BC704700100240D3
:1028300000127A0000093D00AC000020BC0000201E
:1028400080B483B000AF78600B46FB70FB78002B40
:1028500006D00949084B9A697B6813438B6106E0EF
:102860000549054B9A697B68DB4313408B6100BFC8
:102870000C37BD4680BC70470010024080B483B066
:1028800000AF78600B46FB70FB78002B06D009493F
:10289000084BDA697B681343CB6106E00549054BB9
:1028A000DA697B68DB431340CB6100BF0C37BD4660
:1028B00080BC70470010024080B487B000AF034670
:1028C000FB710023FB6000237B610023FB74FB7919
:1028D0005B09DBB2FB60FB68012B03D1124B1B6869
:1028E0007B6109E0FB68022B03D10F4B1B6A7B6104
:1028F00002E00D4B5B6A7B61FB7903F01F03FB6019
:102900007A69FB6822FA03F303F00103002B02D07B
:102910000123FB7401E00023FB74FB7C18461C3789
:10292000BD4680BC704700BF0010024080B400AFBD
:10293000074B00221A60074B4FF404421A80064BE3
:10294000044A12881A6000231846BD4680BC7047AE
:10295000445C004044010020405C004080B485B0ED
:1029600000AF78600023FB60094B1B68FB60FB68CD
:1029700003F03803FB60FA687B681343FB60044A8A
:10298000FB68136000BF1437BD4680BC704700BFB2
:102990000020024080B483B000AF7860084A084B42
:1029A0001B6823F0100313600549054B1A687B6808
:1029B00013430B6000BF0C37BD4680BC704700BF9F
:1029C0000020024080B500AF00F008F800BF80BDD5
:1029D00080B500AF00F024F800BF80BD80B582B0A4
:1029E00000AF0120FFF7A2FA0346FB804FF400710D
:1029F0000948FFF7BFFB4022C021084800F026FD30
:102A00004FF400710448FFF7A7FB0120FFF70CF912
:102A100000BF0837BD4680BD000C014048010020C2
:102A200080B582B000AF0023FB71284B1B88403378
:102A30009AB2264B1A804FF400712548FFF79AFB93
:102A400040224FF48071234800F0C6FC4021002052
:102A5000FFF70CFA30210220FFF776F81B4B1B889A
:102A6000B3F5007F29D10023FB7100F0F3F80021BA
:102A7000002000F0CBF8154B1B880A221649184697
:102A800000F05EFD09E0FB79134AD35C0021184693
:102A900000F048F9FB790133FB71FB790E4AD35CF6
:102AA000002BF0D10021202000F03CF90021522021
:102AB00000F038F9054B00221A804FF400710448E9
:102AC000FFF74AFB00BF0837BD4680BDFC00002071
:102AD000000C014048010020C801002080B500AF73
:102AE00000BF4FF40031104800F044FC0346002BB7
:102AF000F7D101210C4800F09FFB00BF0B490A48A9
:102B000000F008FC0346002BF8D00022782106488C
:102B100000F0E2FB00BF0649034800F0FBFB034660
:102B2000002BF8D000BF80BD00580040010003001A
:102B30008200070080B500AF0121064800F09CFB31
:102B400000BF0549034800F015FC0346002BF8D1EF
:102B500000BF80BD005800401000001080B582B05A
:102B600000AF0346FB71FB791946074800F0A4FB50
:102B700000BF0649044800F0CDFB0346002BF8D007
:102B800000BF0837BD4680BD0058004084000700E4
:102B900080B500AF4FF480511B48FFF7EBFA0A20D5
:102BA00000F004F94FF480511748FFF7D5FA64207C
:102BB00000F0FCF8FFF792FF0020FFF7CFFF2E2078
:102BC000FFF7CCFF2120FFF7C9FF1220FFF7C6FF58
:102BD000C020FFF7C3FF0B20FFF7C0FF0520FFF762
:102BE000BDFF2020FFF7BAFF1120FFF7B7FF0C2031
:102BF000FFF7B4FF4020FFF7B1FF8020FFF7AEFFE3
:102C0000FFF798FF00BF80BD000C014080B582B087
:102C100000AF03460A46FB711346BB71FFF75EFF28
:102C20000020FFF79BFF3020FFF798FFFB7963F050
:102C30007F03DBB21846FFF791FFBB7943F04003F7
:102C4000DBB21846FFF78AFFFFF774FF00BF0837B3
:102C5000BD4680BD80B582B000AFFFF73FFF782052
:102C6000FFF77CFF4020FFF779FF00237B6005E042
:102C70000020FFF773FF7B6801337B607B6840F2C5
:102C800095329342F4DDFFF755FF00BF0837BD468C
:102C900080BD00BF80B584B000AF78600B46FB708C
:102CA000FFF71CFF4020FFF759FF0023FB731CE0D8
:102CB0007B681B78A3F1200213469B001A44FB7B20
:102CC0001344174AD35CBB73FB78002B06D0BB7B45
:102CD000DB43DBB21846FFF741FF03E0BB7B18463E
:102CE000FFF73CFFFB7B0133FB73FB7B042BDFD93E
:102CF000FB78002B03D0FF20FFF730FF02E000201D
:102D0000FFF72CFF7B6801337B607B681B78002B0F
:102D1000CBD1FFF70FFF00BF1037BD4680BD00BF0E
:102D20003036000880B584B000AF03460A46FB7118
:102D30001346BB71FFF7D2FE4020FFF70FFF0023C1
:102D4000FB7328E0FB79A3F1200213469B001A4491
:102D5000FB7B1344144AD35CBB73BB79002B06D0B6
:102D6000BB7BDB43DBB21846FFF7F8FE03E0BB7B1F
:102D70001846FFF7F3FEFB7B042B09D1BB79002B30
:102D800003D0FF20FFF7EAFE02E00020FFF7E6FE97
:102D9000FB7B0133FB73FB7B042BD3D9FFF7CAFE0C
:102DA00000BF1037BD4680BD3036000880B588B002
:102DB00000AF786007F108031846FFF791FCFB6845
:102DC000094AA2FB03235B0B7A6802FB03F3FB6156
:102DD00002E0FB69013BFB61FB69002BF9D100BFFD
:102DE0002037BD4680BD00BF5917B7D180B483B02E
:102DF00000AF7860054A7B6843F0BF6343F400335B
:102E0000D36000BF0C37BD4680BC704700ED00E0CA
:102E100080B487B000AF786000237B6100233B6102
:102E20000F23FB607B68DB78002B3AD0274BDB68F5
:102E3000DB4303F4E0631B0A7B617B69C3F104039A
:102E40003B61FA687B6922FA03F3FB607B685B787D
:102E50001A463B6902FA03F37B617B689B781A464A
:102E6000FB6813407A6913437B617B691B017B61BB
:102E7000174A7B681B787969C9B213440A4683F8FC
:102E80000023134A7B681B785B09DBB218467B681A
:102E90001B7803F01F03012101FA03F342F82030ED
:102EA0000FE00B497B681B785B09DBB218467B6837
:102EB0001B7803F01F0301229A4000F1200341F820
:102EC000232000BF1C37BD4680BC704700ED00E0EA
:102ED00000E100E080B485B000AF78603960002385
:102EE000FB817B681B88FB81FB8903F44153FB81D9
:102EF0003B681A883B685B8813439AB23B689B889F
:102F000013439AB23B68DB8813439AB23B681B8930
:102F100013439AB23B685B8913439AB23B689B891F
:102F200013439AB23B68DB8913439AB2FB8913437C
:102F3000FB817B68FA891A807B689B8B9BB223F4A8
:102F400000639AB27B689A833B681A8A7B681A820C
:102F500000BF1437BD4680BC704700BF80B483B04B
:102F600000AF78607B6800221A807B6800225A805C
:102F70007B6800229A807B680022DA807B680022CE
:102F80001A817B6800225A817B6800229A817B68C3
:102F90000022DA817B6807221A8200BF0C37BD4607
:102FA00080BC704780B483B000AF78600B46FB7084
:102FB000FB78002B08D07B681B889BB243F0400352
:102FC0009AB27B681A8007E07B681B889BB223F06B
:102FD00040039AB27B681A8000BF0C37BD4680BCA4
:102FE000704700BF80B483B000AF78600B467B8031
:102FF0007B687A889A8100BF0C37BD4680BC7047D9
:1030000080B485B000AF78600B467B800023FB73F3
:103010007B681B899AB27B8813409BB2002B02D03D
:103020000123FB7301E00023FB73FB7B184614377D
:10303000BD4680BC704700BF80B58AB000AF7860E5
:1030400039600023FB8400237B840423BB84574B1B
:10305000FB617B689B88FB84FB8C23F03F03FB8434
:1030600007F108031846FFF73BFB3B69FB61FB696F
:103070004F4AA2FB03239B0C7B84FA8C7B8C13436B
:10308000FB847B68FA8C9A807B681B889BB223F058
:1030900001039AB27B681A800023FB843B681B689B
:1030A000444A934215D83B681B685B00FA69B2FB3F
:1030B000F3F3BB84BB8C032B01D80423BB84FA8CB1
:1030C000BB8C1343FB847B8C01339AB27B681A84DC
:1030D00040E03B68DB884BF6FF72934209D13B68C6
:1030E0001A6813465B001344FA69B2FBF3F3BB841E
:1030F0000EE03B681A6813469B0013449A00134481
:10310000FA69B2FBF3F3BB84BB8C43F48043BB840A
:10311000BB8CC3F30B03002B03D1BB8C43F0010327
:10312000BB84BA8CFB8C13439BB26FEA43436FEAB8
:103130005343FB847B8C4FF4967202FB03F31E4ACD
:1031400082FB03129211DB17D31A9BB201339AB29E
:103150007B681A847B68FA8C9A837B681B889BB295
:1031600043F001039AB27B681A807B681B88FB845A
:10317000FB8C23F4816323F00203FB843B689A8871
:103180003B685B8913439AB2FB8C1343FB847B68D7
:10319000FA8C1A803B689A893B681B8913439AB260
:1031A0007B681A8100BF2837BD4680BD00127A00B7
:1031B00083DE1B43A0860100D34D621080B483B030
:1031C00000AF78607B6841F288321A607B68002229
:1031D0009A807B684BF6FF72DA807B6800221A8146
:1031E0007B6800225A817B684FF480429A8100BF3D
:1031F0000C37BD4680BC704780B483B000AF7860A8
:103200000B46FB70FB78002B08D07B681B889BB2B9
:1032100043F001039AB27B681A8007E07B681B8841
:103220009BB223F001039AB27B681A8000BF0C376F
:10323000BD4680BC704700BF80B483B000AF7860EB
:103240000B46FB70FB78002B08D07B681B889BB279
:1032500043F480739AB27B681A8007E07B681B880E
:103260009BB223F480739AB27B681A8000BF0C373C
:10327000BD4680BC704700BF80B483B000AF7860AB
:103280000B46FB70FB78002B08D07B681B889BB239
:1032900043F400739AB27B681A8007E07B681B884E
:1032A0009BB223F400739AB27B681A8000BF0C377C
:1032B000BD4680BC704700BF80B483B000AF78606B
:1032C0000B46FB70FB789AB27B681A8200BF0C3702
:1032D000BD4680BC704700BF80B483B000AF78604B
:1032E0000B46FB701346BB70BB78002B04D0FB78F9
:1032F00043F00103FB7003E0FB7823F00103FB7054
:10330000FB789AB27B681A8200BF0C37BD4680BC3E
:10331000704700BF80B487B000AF78603960002389
:103320003B610023FB600023BB600023FB757B68CF
:103330009B8A9BB2FB607B681B8B9BB2BB60BB68AC
:103340001B04BB60FA68BB68134323F07F433B61F7
:103350003A693B681A403B689A4202D10123FB75E7
:1033600001E00023FB75FB7D18461C37BD4680BC81
:10337000704700BF80B487B000AF78603960002329
:10338000FB7500233B610023FB607B68FB603B68AF
:103390001B0F3B613B6823F07F433B603B69002B85
:1033A00003D0FB681433FB6005E03B681B0C3B60FB
:1033B000FB681833FB60FB681A683B681340002BFE
:1033C00002D00123FB7501E00023FB75FB7D18464D
:1033D0001C37BD4680BC704780B489B000AF7860B0
:1033E0000B467B8013463B803B8801335B107B613F
:1033F0007B8803F1005303F540535B00BB617B699D
:10340000FB611BE07B681B783B617B6801337B6061
:103410007B681B781B021A463B691343FB60BB6940
:103420009A1CBA61FA6892B21A80BB690233BB6116
:103430007B6801337B60FB69013BFB61FB69002B0F
:10344000E0D100BF2437BD4680BC704780B487B050
:1034500000AF78600B467B8013463B803B8801338E
:103460005B10FB607B8803F1005303F540535B0066
:103470003B61FB687B610EE07B685A1C7A603A69AD
:10348000111D3961126892B21A807B6801337B602A
:103490007B69013B7B617B69002BEDD100BF1C3751
:1034A000BD4680BC704700BF80B500AFFEF7AEF9E7
:1034B00000BF80BD80B500AF114B1B689AB2114BA5
:1034C0001A80104B1B889BB203F400430E4A1288EB
:1034D0001340002B01D0FEF719F80A4B1B889BB252
:1034E00003F48063084A12881340002B06D0044B73
:1034F0004FF6FF321A60054B5B68984700BF80BDEE
:10350000445C0040D4010020440100205800002009
:10351000931E222B10D80A2A10B506D000230C4681
:10352000194400F00FF8204610BD0028F6DA2D23CC
:103530000B7040420123F2E700200870704700BF83
:10354000FFF7E6BFF0B58BB06F461546DFF870E0C9
:1035500004460E46BEE80F000FC7BEE80F000FC7B7
:103560009EE80300AB1E47F8040B222B397022D8CB
:10357000711E0846002300E01346B4FBF5F205FB7C
:1035800012440AAF3C4414F8287C144600F8017F2A
:103590005A1C002CF0D1B454F2184BB1013411F87C
:1035A000015F1778181B84420F7002F80159F5DB90
:1035B00030460BB0F0BD002030700BB0F0BD00BF46
:1035C000903A00084E524632345F496E69745F6F1C
:1035D0006B00000012010002FF000040ADDE0DF0A4
:1035E000000101020301000009022000010100E0C6
:1035F000320904000002FF0000000705010240003C
:10360000000705820240000004030904120356006B
:103610006C006100640069006D00690072000000C8
:103620001003550053004200200058005800580075
:10363000000000000000002F000000070007001439
:103640007F147F14242A7F2A12C4C81026463649C4
:103650005522500005030000001C224100004122B9
:103660001C0014083E081408083E080800005030EA
:1036700000101010101000606000002010080402FC
:103680003E5149453E00427F40004261514946213A
:1036900041454B311814127F1027454545393C4AA6
:1036A00049493001710905033649494936064949F6
:1036B000291E00363600000056360000081422414C
:1036C00000141414141400412214080201510906B4
:1036D000324959513E7E1111117E7F494949363E8A
:1036E000414141227F4141221C7F494949417F0993
:1036F0000909013E4149497A7F0808087F00417F56
:1037000041002040413F017F081422417F4040405A
:10371000407F020C027F7F0408107F3E4141413E02
:103720007F090909063E4151215E7F091929464654
:103730004949493101017F01013F4040403F1F207D
:1037400040201F3F4038403F63140814630708704F
:1037500008076151494543007F414100552A552AD8
:10376000550041417F0004020102044040404040B6
:10377000000102040020545454787F4844443838EF
:1037800044444420384444487F3854545418087EF4
:103790000901020C5252523E7F0804047800447D15
:1037A00040002040443D007F1028440000417F40FD
:1037B000007C041804787C080404783844444438B5
:1037C0007C14141408081414187C7C080404084899
:1037D00054545420043F4440203C4040207C1C2052
:1037E00040201C3C4030403C44281028440C5050A1
:1037F000503C4464544C44000836410000007F00B3
:103800000000413608000402040804000000000023
:1038100000000000000000000000000000000000A8
:103820000000000000000000000000000000000098
:103830000000000000000000000000000000000088
:103840000000000000000000000000000000000078
:103850000000000000000000000000000000000068
:103860000000000000000000000000000000000058
:103870000000000000000000000000000000000048
:103880000000000000000000000000000000000038
:103890000000000000000000000000000000000028
:1038A0000000000000000000000000000000000018
:1038B0000000000000000000000000000000000008
:1038C00000000000000000000000000000000000F8
:1038D00036000000000000000000000000000000B2
:1038E00000003E494949220000000000000000009D
:1038F000000000000000000000000044457C45443A
:103900000000000000000000000000417F410000B6
:10391000447D4000000000000000000000000000A6
:103920000000000000000000000000000000000097
:10393000000038544428000000000000000000008F
:1039400000000000000000000000004A487A4040EB
:103950007E1111117E7F494949317F494949367F9E
:1039600001010103603E21217F7F494949416314E0
:103970007F146322494949367F1008047F7F10096C
:10398000047F7F081422417C0201017F7F020C0228
:103990007F7F0808087F3E4141413E7F0101017F52
:1039A0007F090909063E4141412201017F010107CA
:1039B0004848483F1C227F221C63140814633F20A0
:1039C000203F60070808087F7F407F407F3F203FFF
:1039D000207F017F4848307F4848307F7F484848F3
:1039E00030224949493E7F083E413E462919097F18
:1039F000205454547878545454207C545454287C83
:103A000004040400603824386038545454186C108E
:103A10007C106C28445454283C4040207C3C40425C
:103A2000207C7C10102844601008047C7C0810085E
:103A30007C7C1010107C38444444387C0404047CA2
:103A40007C14141408384444442004047C04040CFA
:103A50005050503C18247C241844281028443C2002
:103A6000203C600C1010107C7C407C407C3C203C56
:103A7000207C047C4848307C4830007C7C484848A6
:103A80003028445454387C10384438582424247C3A
:103A900030313233343536373839616263646566C4
:103AA0006768696A6B6C6D6E6F707172737475762E
:083AB0007778797A000000002C
:103AB80000A24A0400000000000000000102030404
:103AC800060708091003550053004200540045003A
:103AD80053005400D435000812000000E8350008EF
:103AE8002000000008360008040000000C3600081A
:103AF800120000002036000810000000140000200A
:103B0800100000000301000091210008D9210008DD
:103B18009510000895100008A52200081D2300082C
:103B2800352300086523000889230008AD23000811
:103B380000000000400000009510000895100008E3
:103B480095100008951000089510000895100008B9
:103B58009510000895100008951000080000000056
:103B68000102030401020304060708090204060807
:103B780095100008D1290008951000089510000834
:103B8800951000089510000895100008C529000830
:103B98009510000895100008951000089510000869
:083BA8009510000895100008BB
:0400000508000000EF
:00000001FF
